:03000000020006F5
:03005F0002000399
:0300030002006296
:10006200E4F508F509750A0FF50B750C0FF50D751A
:100072000E0FF50F75100FF511F512F5137A017BBE
:10008200007580FFE51320E744C003C00212025648
:10009200AD82D002D0038D04E4FD33E433FF70203F
:1000A200C3740F9C74808DF063F08095F0E433FE8E
:1000B200700EEA4B60048C088D097A007B00800781
:1000C2000ABA00090B8006EF7003EE60BC0512E469
:1000D200B512020513C3E4951274808513F063F020
:1000E2008095F05036E50920E72BC3740F9508740C
:1000F200808509F063F08095F0401ABA0117BB00C1
:100102001485081490000A75F040C003C002120161
:1001120031D002D0037512F67513FF90000A75F004
:1001220040C003C0021201B4D002D003020086858F
:10013200821585831685F0177B037C00C3E49B74CC
:10014200808CF063F08095F05052EB2BF9EC33FA8F
:10015200E92515F518EA3516F51985171AEB24FF66
:10016200FEEC34FFFFEE2EFDEF33FAED2515F9EA32
:100172003516FAAD1789828A838DF012032DF9A301
:1001820012032DFA851882851983851AF0E9120364
:1001920012A3EA1203128E038F0480A0AF147E0012
:1001A2008515828516838517F0EF120312A3EE02DE
:1001B2000312AD82AE83AFF012032DFC74E04CF556
:1001C200807B007C00C3EC6480948150070BBB00F1
:1001D200F40C80F174022DFAE43EFB8F048A828BC8
:1001E200838CF012032DFA74D04AF5807B007C00D8
:1001F200C3EC6480948150070BBB00F40C80F17453
:10020200042DFAE43EFB8F048A828B838CF0120366
:100212002DFA74B04AF5807B007C00C3EC648094B4
:100222008150070BBB00F40C80F174062DFDE43EF7
:10023200FE8D828E838FF012032DFD74704DF5803A
:100242007E007F00C3EF6480948150070EBE00F4ED
:100252000F80F1227514EF7515007516DF75170002
:100262007518BF751900751A7F751B00751C01750D
:100272001D00751E02751F00752004752100752270
:1002820008E4F523FEFFF524F525C3E5249404E5EF
:1002920025648094805075E5242524FAE52533EA07
:1002A2002414F98790E4FAFBF526F527C3E5269492
:1002B20004E527648094805044C002C003E52625EB
:1002C20026FCE52733EC241CF9870409870519AAC3
:1002D200907B00EA5204EB5205D003D002EC4D7041
:1002E2000E8E05ED2D25E0FD8A04EC2DF58222050A
:1002F20026E4B526020527AA26AB2780AF0524E40B
:10030200B524020525AE24AF2502028C7582FF2298
:06003500E478FFF6D8FD9F
:100013007900E94400601B7A0090034D780175A0D4
:1000230000E493F2A308B8000205A0D9F4DAF2754C
:02003300A0FF2C
:1003120020F71130F6138883A88220F509F6A88306
:0B0322007583002280FEF280F5F022BF
:10003B007800E84400600A790175A000E4F309D860
:10004B00FC7800E84400600C7900900001E4F0A318
:04005B00D8FCD9FAFA
:0D000600758127120349E5826003020003A3
:10032D0020F71430F6148883A88220F507E6A883F9
:10033D0075830022E280F7E49322E0227582002289
:00000001FF
